S01C00005368696674526567207769746820737472696E672E7372656359
S11300000C9479000C948E000C948E000C948E0049
S11300100C948E000C948E000C948E000C948E0024
S11300200C948E000C948E000C948E000C948E0014
S11300300C948E000C948E000C948E000C948E0004
S11300400C948E000C948E000C948E000C948E00F4
S11300500C948E000C948E000C948E000C948E00E4
S11300600C948E000C948E000C948E000C948E00D4
S11300700C948E000C948E000C948E009B00540102
S113008054015401540154015401540154015401C4
S11300905401540154015401540154012201270113
S11300A02C01310136013B01400145014A014F0158
S11300B05401540154015401540154015401A00049
S11300C0A500AA00AF00B400B900BE00C300C80078
S11300D0CD00D200D700DC00E100E600EB00F00028
S11300E0F500FA00FF00040109010E0113011801D3
S11300F01D0111241FBECFEFD8E0DEBFCDBF12E03B
S1130100A0E0B1E0E0ECF5E002C005900D92A2346D
S1130110B107D9F70E94B4020C94DE020C940000DB
S113012090E0FC01B097EB33F10508F0BDC0E25C50
S1130130FF4F0C94D802FB01E05EFD4F80810895CF
S1130140FB01E85EFD4F80810895FB01E05FFD4FF8
S113015080810895FB01E85FFD4F80810895FB01D4
S1130160E050FE4F80810895FB01E850FE4F8081EE
S11301700895FB01E051FE4F80810895FB01E85191
S1130180FE4F80810895FB01E052FE4F8081089567
S1130190FB01E852FE4F80810895FB01E053FE4FBE
S11301A080810895FB01E853FE4F80810895FB018F
S11301B0E054FE4F80810895FB01E854FE4F808196
S11301C00895FB01E055FE4F80810895FB01E85539
S11301D0FE4F80810895FB01E056FE4F8081089513
S11301E0FB01E856FE4F80810895FB01E057FE4F66
S11301F080810895FB01E857FE4F80810895FB013B
S1130200E058FE4F80810895FB01E858FE4F80813D
S11302100895FB01E059FE4F80810895FB01E859E0
S1130220FE4F80810895FB01E05AFE4F80810895BE
S1130230FB01E85AFE4F80810895FB01E05BFE4F0D
S113024080810895FB01E85BFE4F80810895FB01E6
S1130250E05CFE4F80810895FB01E85CFE4F8081E5
S11302600895FB01E05DFE4F80810895FB01E85D88
S1130270FE4F80810895FB01E05EFE4F808108956A
S1130280FB01E85EFE4F80810895FB01E05FFE4FB5
S113029080810895FB01E85FFE4F80810895FB0192
S11302A0E050FF4F808108950895DA010FC0E82FD0
S11302B0F92F529121E030E0062E02C0220F331FA5
S11302C00A94E2F7252B20836F5F7F4FA617B707A9
S11302D074F70895FB01408121E030E0B90102C0C8
S11302E0660F771F8A95E2F7CB01462B4083000007
S11302F090818095892380830895CF92DF92EF9235
S1130300FF921F93CF93DF936B017A01B9010E948F
S11303109000182FC0E0D0E00FC0112324F488B15E
S1130320816088B903C088B18E7F88B9110FB70185
S1130330C6010E946A012196C830D10574F3DF9189
S1130340CF911F91FF90EF90DF90CF9008950F937E
S11303501F93CF93DF93CDB7DEB765970FB6F894AD
S1130360DEBF0FBECDBFDA0120E030E02DC0FC01BE
S11303704081403209F40196FC014191CF01E1E052
S1130380F0E0EC0FFD1FE20FF31F4083FB014081FF
S1130390403211F46F5F7F4FFB014191BF01E8E0F0
S11303A0F0E0EC0FFD1FE20FF31F40834C9140324D
S11303B009F411964D91EFE0F0E0EC0FFD1FE20F10
S11303C0F31F40832F5F3F4F2730310584F200E055
S11303D010E0BBC0F801E05EFD4F980148E250E038
S11303E062E070E080810E947D01980148E250E063
S11303F063E070E089810E947D01980148E250E049
S113040064E070E08A810E947D01980148E250E036
S113041065E070E08B810E947D01980148E250E024
S113042066E070E08C810E947D01980148E250E012
S113043067E070E08D810E947D01980145E250E003
S113044060E070E08E810E947D01980145E250E0F9
S113045061E070E08F810E947D01980145E250E0E7
S113046062E070E088850E947D01980145E250E0D9
S113047063E070E089850E947D01980145E250E0C7
S113048064E070E08A850E947D01980145E250E0B5
S113049065E070E08B850E947D01980145E250E0A3
S11304A066E070E08C850E947D01980145E250E091
S11304B067E070E08D850E947D0198014BE250E079
S11304C060E070E08E850E947D0198014BE250E06F
S11304D061E070E08F850E947D0198014BE250E05D
S11304E062E070E088890E947D0198014BE250E04F
S11304F063E070E089890E947D0198014BE250E03D
S113050064E070E08A890E947D0198014BE250E02A
S113051065E070E08B890E947D0198014BE250E018
S113052066E070E08C890E947D0198014BE250E006
S113053067E070E08D890E947D0168E270E081E0EF
S113054090E00E946A010F5F1F4F083011050CF400
S113055041CF65960FB6F894DEBF0FBECDBFDF91D5
S1130560CF911F910F91089587B1836087B947E0B8
S113057050E062E070E088E290E00E94550147E0BC
S113058050E060E070E085E290E00E94550147E0B1
S113059050E060E070E08BE290E00E94550148E298
S11305A052E060E372E088E392E00E94A701F7CF93
S11305B0EE0FFF1F0590F491E02D0994F894FFCFFE
S11305C0FCFCCCCCFC0C0C0C78FCCCFCFCCCFC78FF
S11305D0FCFC1C1C3870E0C03C7CC0F8CCCCF8702F
S11305E0FCFCC0F03C1CF8F0D8D8D8FC7C181818D7
S11305F078FC0CFCFC0CFC7878FCCC9C3870FCFC83
S11306003878D8981818FFFF78FCCCCCCCCCFC7880
S1130610FEFE0E1C3870FEFE84CCCCFC78303030EC
S113062066663C18183C6666C6C6C6C6D6FEEE4468
S1130630C6C6C6C6EE7C3810C6C6C6C6C6C6FE7CCE
S1130640FEFE38383838383878FCEC74B8DCFC787E
S1130650FCFEC6C6FEFCCEC6387CC6D6DECE7E3BCD
S1130660FCFEC6C6FEFCC0C07CFEC6C6C6C6FE7C7A
S1130670C6E6F6FEFEDECEC682C6EEFEFED6C6C6D2
S1130680C0C0C0C0C0C0FEFEC6CEDCF8F8DCCEC61A
S11306907E7E1818D8D8F8F8FEFE38383830FEFEBA
S11306A0C6C6C6FEFEC6C6C6FEFEC0DEDEC6FEFE6C
S11306B0FEFEC0FEFEC0C0C0FEC0C0FEFEC0C0FE46
S11306C0F8FCC6C6C6C6FCF83E7EE0C0C0E07E3E6E
S11306D0FCC6C6FEFEC6C6FC7CFEC6C6FEFEC6C67C
S11306E07FBFDFEFF7FBFDFE4D4553534147450008
S11306F031303239333834004B4141203835304BB6
S10507000000F3
S9030000FC
